{
  "_format": "hh-sol-artifact-1",
  "contractName": "Messenger",
  "sourceName": "contracts/Messenger.sol",
  "abi": [
    {
      "inputs": [
        {
          "internalType": "uint256",
          "name": "_numOfPendingLimits",
          "type": "uint256"
        }
      ],
      "stateMutability": "payable",
      "type": "constructor"
    },
    {
      "anonymous": false,
      "inputs": [
        {
          "indexed": false,
          "internalType": "address",
          "name": "receiver",
          "type": "address"
        },
        {
          "indexed": false,
          "internalType": "uint256",
          "name": "index",
          "type": "uint256"
        }
      ],
      "name": "MessageConfirmed",
      "type": "event"
    },
    {
      "anonymous": false,
      "inputs": [
        {
          "indexed": false,
          "internalType": "address",
          "name": "sender",
          "type": "address"
        },
        {
          "indexed": false,
          "internalType": "address",
          "name": "receiver",
          "type": "address"
        },
        {
          "indexed": false,
          "internalType": "uint256",
          "name": "depositInWei",
          "type": "uint256"
        },
        {
          "indexed": false,
          "internalType": "uint256",
          "name": "timestamp",
          "type": "uint256"
        },
        {
          "indexed": false,
          "internalType": "string",
          "name": "text",
          "type": "string"
        },
        {
          "indexed": false,
          "internalType": "bool",
          "name": "isPending",
          "type": "bool"
        }
      ],
      "name": "NewMessage",
      "type": "event"
    },
    {
      "anonymous": false,
      "inputs": [
        {
          "indexed": false,
          "internalType": "uint256",
          "name": "limits",
          "type": "uint256"
        }
      ],
      "name": "NumOfPendingLimitsChanged",
      "type": "event"
    },
    {
      "inputs": [
        {
          "internalType": "uint256",
          "name": "_index",
          "type": "uint256"
        }
      ],
      "name": "accept",
      "outputs": [],
      "stateMutability": "nonpayable",
      "type": "function"
    },
    {
      "inputs": [
        {
          "internalType": "uint256",
          "name": "_limits",
          "type": "uint256"
        }
      ],
      "name": "changeNumOfPendingLimits",
      "outputs": [],
      "stateMutability": "nonpayable",
      "type": "function"
    },
    {
      "inputs": [
        {
          "internalType": "uint256",
          "name": "_index",
          "type": "uint256"
        }
      ],
      "name": "deny",
      "outputs": [],
      "stateMutability": "payable",
      "type": "function"
    },
    {
      "inputs": [],
      "name": "getOwnMessages",
      "outputs": [
        {
          "components": [
            {
              "internalType": "address payable",
              "name": "sender",
              "type": "address"
            },
            {
              "internalType": "address payable",
              "name": "receiver",
              "type": "address"
            },
            {
              "internalType": "uint256",
              "name": "depositInWei",
              "type": "uint256"
            },
            {
              "internalType": "uint256",
              "name": "timestamp",
              "type": "uint256"
            },
            {
              "internalType": "string",
              "name": "text",
              "type": "string"
            },
            {
              "internalType": "bool",
              "name": "isPending",
              "type": "bool"
            }
          ],
          "internalType": "struct Messenger.Message[]",
          "name": "",
          "type": "tuple[]"
        }
      ],
      "stateMutability": "view",
      "type": "function"
    },
    {
      "inputs": [],
      "name": "numOfPendingLimits",
      "outputs": [
        {
          "internalType": "uint256",
          "name": "",
          "type": "uint256"
        }
      ],
      "stateMutability": "view",
      "type": "function"
    },
    {
      "inputs": [],
      "name": "owner",
      "outputs": [
        {
          "internalType": "address",
          "name": "",
          "type": "address"
        }
      ],
      "stateMutability": "view",
      "type": "function"
    },
    {
      "inputs": [
        {
          "internalType": "string",
          "name": "_text",
          "type": "string"
        },
        {
          "internalType": "address payable",
          "name": "_receiver",
          "type": "address"
        }
      ],
      "name": "post",
      "outputs": [],
      "stateMutability": "payable",
      "type": "function"
    }
  ],
  "bytecode": "0x608060405260405162001fa838038062001fa88339818101604052810190620000299190620001e0565b620000746040518060400160405280602081526020017f48657265206973206d7920666972737420736d61727420636f6e7472616374218152506200009260201b62000bef1760201c565b620000846200013560201b60201c565b8060018190555050620002d0565b6200013281604051602401620000a99190620002ac565b6040516020818303038152906040527f41304fac000000000000000000000000000000000000000000000000000000007bffffffffffffffffffffffffffffffffffffffffffffffffffffffff19166020820180517bffffffffffffffffffffffffffffffffffffffffffffffffffffffff83818316178352505050506200017760201b60201c565b50565b336000806101000a81548173ffffffffffffffffffffffffffffffffffffffff021916908373ffffffffffffffffffffffffffffffffffffffff160217905550565b60008151905060006a636f6e736f6c652e6c6f679050602083016000808483855afa5050505050565b600080fd5b6000819050919050565b620001ba81620001a5565b8114620001c657600080fd5b50565b600081519050620001da81620001af565b92915050565b600060208284031215620001f957620001f8620001a0565b5b60006200020984828501620001c9565b91505092915050565b600081519050919050565b600082825260208201905092915050565b60005b838110156200024e57808201518184015260208101905062000231565b60008484015250505050565b6000601f19601f8301169050919050565b6000620002788262000212565b6200028481856200021d565b9350620002968185602086016200022e565b620002a1816200025a565b840191505092915050565b60006020820190508181036000830152620002c881846200026b565b905092915050565b611cc880620002e06000396000f3fe6080604052600436106100705760003560e01c806356f662821161004e57806356f66282146100e5578063837106bb146101015780638da5cb5b1461012a578063acdb8efd1461015557610070565b806313e262711461007557806319b05f491461009157806339869bc3146100ba575b600080fd5b61008f600480360381019061008a919061112a565b610180565b005b34801561009d57600080fd5b506100b860048036038101906100b391906111bc565b61047f565b005b3480156100c657600080fd5b506100cf6106b6565b6040516100dc91906111f8565b60405180910390f35b6100ff60048036038101906100fa91906111bc565b6106bc565b005b34801561010d57600080fd5b50610128600480360381019061012391906111bc565b6108f3565b005b34801561013657600080fd5b5061013f6109c2565b60405161014c9190611234565b60405180910390f35b34801561016157600080fd5b5061016a6109e6565b6040516101779190611452565b60405180910390f35b600154600360003373ffffffffffffffffffffffffffffffffffffffff1673ffffffffffffffffffffffffffffffffffffffff1681526020019081526020016000205410610203576040517f08c379a00000000000000000000000000000000000000000000000000000000081526004016101fa906114f7565b60405180910390fd5b6001600360003373ffffffffffffffffffffffffffffffffffffffff1673ffffffffffffffffffffffffffffffffffffffff16815260200190815260200160002060008282546102539190611546565b9250508190555061029b6040518060400160405280601d81526020017f257320706f73747320746578743a5b25735d20746f6b656e3a5b25735d000000815250338434610c88565b600260008273ffffffffffffffffffffffffffffffffffffffff1673ffffffffffffffffffffffffffffffffffffffff1681526020019081526020016000206040518060c001604052803373ffffffffffffffffffffffffffffffffffffffff1681526020018373ffffffffffffffffffffffffffffffffffffffff16815260200134815260200142815260200184815260200160011515815250908060018154018082558091505060019003906000526020600020906006020160009091909190915060008201518160000160006101000a81548173ffffffffffffffffffffffffffffffffffffffff021916908373ffffffffffffffffffffffffffffffffffffffff16021790555060208201518160010160006101000a81548173ffffffffffffffffffffffffffffffffffffffff021916908373ffffffffffffffffffffffffffffffffffffffff160217905550604082015181600201556060820151816003015560808201518160040190816104169190611786565b5060a08201518160050160006101000a81548160ff02191690831515021790555050507f6b8f49facd5e00a27899ac1ac6cd3edeb40299f83f03eac03a0c04e7a905909633823442866001604051610473969594939291906118f5565b60405180910390a15050565b61048881610d2a565b6000600260003373ffffffffffffffffffffffffffffffffffffffff1673ffffffffffffffffffffffffffffffffffffffff16815260200190815260200160002082815481106104db576104da61195d565b5b90600052602060002090600602016040518060c00160405290816000820160009054906101000a900473ffffffffffffffffffffffffffffffffffffffff1673ffffffffffffffffffffffffffffffffffffffff1673ffffffffffffffffffffffffffffffffffffffff1681526020016001820160009054906101000a900473ffffffffffffffffffffffffffffffffffffffff1673ffffffffffffffffffffffffffffffffffffffff1673ffffffffffffffffffffffffffffffffffffffff16815260200160028201548152602001600382015481526020016004820180546105c4906115a9565b80601f01602080910402602001604051908101604052809291908181526020018280546105f0906115a9565b801561063d5780601f106106125761010080835404028352916020019161063d565b820191906000526020600020905b81548152906001019060200180831161062057829003601f168201915b505050505081526020016005820160009054906101000a900460ff161515151581525050905061067581602001518260400151610e98565b7f2657c0f1a183b8a175f4cf6c3f6d7764c7265155fc9635682baad3cedd67d2878160200151836040516106aa92919061198c565b60405180910390a15050565b60015481565b6106c581610d2a565b6000600260003373ffffffffffffffffffffffffffffffffffffffff1673ffffffffffffffffffffffffffffffffffffffff16815260200190815260200160002082815481106107185761071761195d565b5b90600052602060002090600602016040518060c00160405290816000820160009054906101000a900473ffffffffffffffffffffffffffffffffffffffff1673ffffffffffffffffffffffffffffffffffffffff1673ffffffffffffffffffffffffffffffffffffffff1681526020016001820160009054906101000a900473ffffffffffffffffffffffffffffffffffffffff1673ffffffffffffffffffffffffffffffffffffffff1673ffffffffffffffffffffffffffffffffffffffff1681526020016002820154815260200160038201548152602001600482018054610801906115a9565b80601f016020809104026020016040519081016040528092919081815260200182805461082d906115a9565b801561087a5780601f1061084f5761010080835404028352916020019161087a565b820191906000526020600020905b81548152906001019060200180831161085d57829003601f168201915b505050505081526020016005820160009054906101000a900460ff16151515158152505090506108b281600001518260400151610e98565b7f2657c0f1a183b8a175f4cf6c3f6d7764c7265155fc9635682baad3cedd67d2878160200151836040516108e792919061198c565b60405180910390a15050565b60008054906101000a900473ffffffffffffffffffffffffffffffffffffffff1673ffffffffffffffffffffffffffffffffffffffff163373ffffffffffffffffffffffffffffffffffffffff1614610981576040517f08c379a000000000000000000000000000000000000000000000000000000000815260040161097890611a01565b60405180910390fd5b806001819055507ff4add848113971c4866581c1df1951b8665a05140021ce0d344d1e823b8133c8816040516109b791906111f8565b60405180910390a150565b60008054906101000a900473ffffffffffffffffffffffffffffffffffffffff1681565b6060600260003373ffffffffffffffffffffffffffffffffffffffff1673ffffffffffffffffffffffffffffffffffffffff168152602001908152602001600020805480602002602001604051908101604052809291908181526020016000905b82821015610be657838290600052602060002090600602016040518060c00160405290816000820160009054906101000a900473ffffffffffffffffffffffffffffffffffffffff1673ffffffffffffffffffffffffffffffffffffffff1673ffffffffffffffffffffffffffffffffffffffff1681526020016001820160009054906101000a900473ffffffffffffffffffffffffffffffffffffffff1673ffffffffffffffffffffffffffffffffffffffff1673ffffffffffffffffffffffffffffffffffffffff1681526020016002820154815260200160038201548152602001600482018054610b3a906115a9565b80601f0160208091040260200160405190810160405280929190818152602001828054610b66906115a9565b8015610bb35780601f10610b8857610100808354040283529160200191610bb3565b820191906000526020600020905b815481529060010190602001808311610b9657829003601f168201915b505050505081526020016005820160009054906101000a900460ff16151515158152505081526020019060010190610a47565b50505050905090565b610c8581604051602401610c039190611a21565b6040516020818303038152906040527f41304fac000000000000000000000000000000000000000000000000000000007bffffffffffffffffffffffffffffffffffffffffffffffffffffffff19166020820180517bffffffffffffffffffffffffffffffffffffffffffffffffffffffff8381831617835250505050610f49565b50565b610d2484848484604051602401610ca29493929190611a43565b6040516020818303038152906040527f91d1112e000000000000000000000000000000000000000000000000000000007bffffffffffffffffffffffffffffffffffffffffffffffffffffffff19166020820180517bffffffffffffffffffffffffffffffffffffffffffffffffffffffff8381831617835250505050610f49565b50505050565b6000600260003373ffffffffffffffffffffffffffffffffffffffff1673ffffffffffffffffffffffffffffffffffffffff1681526020019081526020016000208281548110610d7d57610d7c61195d565b5b906000526020600020906006020190508060010160009054906101000a900473ffffffffffffffffffffffffffffffffffffffff1673ffffffffffffffffffffffffffffffffffffffff163373ffffffffffffffffffffffffffffffffffffffff1614610e1f576040517f08c379a0000000000000000000000000000000000000000000000000000000008152600401610e1690611b08565b60405180910390fd5b600115158160050160009054906101000a900460ff16151514610e77576040517f08c379a0000000000000000000000000000000000000000000000000000000008152600401610e6e90611b9a565b60405180910390fd5b60008160050160006101000a81548160ff0219169083151502179055505050565b60008273ffffffffffffffffffffffffffffffffffffffff1682604051610ebe90611beb565b60006040518083038185875af1925050503d8060008114610efb576040519150601f19603f3d011682016040523d82523d6000602084013e610f00565b606091505b5050905080610f44576040517f08c379a0000000000000000000000000000000000000000000000000000000008152600401610f3b90611c72565b60405180910390fd5b505050565b60008151905060006a636f6e736f6c652e6c6f679050602083016000808483855afa5050505050565b6000604051905090565b600080fd5b600080fd5b600080fd5b600080fd5b6000601f19601f8301169050919050565b7f4e487b7100000000000000000000000000000000000000000000000000000000600052604160045260246000fd5b610fd982610f90565b810181811067ffffffffffffffff82111715610ff857610ff7610fa1565b5b80604052505050565b600061100b610f72565b90506110178282610fd0565b919050565b600067ffffffffffffffff82111561103757611036610fa1565b5b61104082610f90565b9050602081019050919050565b82818337600083830152505050565b600061106f61106a8461101c565b611001565b90508281526020810184848401111561108b5761108a610f8b565b5b61109684828561104d565b509392505050565b600082601f8301126110b3576110b2610f86565b5b81356110c384826020860161105c565b91505092915050565b600073ffffffffffffffffffffffffffffffffffffffff82169050919050565b60006110f7826110cc565b9050919050565b611107816110ec565b811461111257600080fd5b50565b600081359050611124816110fe565b92915050565b6000806040838503121561114157611140610f7c565b5b600083013567ffffffffffffffff81111561115f5761115e610f81565b5b61116b8582860161109e565b925050602061117c85828601611115565b9150509250929050565b6000819050919050565b61119981611186565b81146111a457600080fd5b50565b6000813590506111b681611190565b92915050565b6000602082840312156111d2576111d1610f7c565b5b60006111e0848285016111a7565b91505092915050565b6111f281611186565b82525050565b600060208201905061120d60008301846111e9565b92915050565b600061121e826110cc565b9050919050565b61122e81611213565b82525050565b60006020820190506112496000830184611225565b92915050565b600081519050919050565b600082825260208201905092915050565b6000819050602082019050919050565b611284816110ec565b82525050565b61129381611186565b82525050565b600081519050919050565b600082825260208201905092915050565b60005b838110156112d35780820151818401526020810190506112b8565b60008484015250505050565b60006112ea82611299565b6112f481856112a4565b93506113048185602086016112b5565b61130d81610f90565b840191505092915050565b60008115159050919050565b61132d81611318565b82525050565b600060c08301600083015161134b600086018261127b565b50602083015161135e602086018261127b565b506040830151611371604086018261128a565b506060830151611384606086018261128a565b506080830151848203608086015261139c82826112df565b91505060a08301516113b160a0860182611324565b508091505092915050565b60006113c88383611333565b905092915050565b6000602082019050919050565b60006113e88261124f565b6113f2818561125a565b9350836020820285016114048561126b565b8060005b85811015611440578484038952815161142185826113bc565b945061142c836113d0565b925060208a01995050600181019050611408565b50829750879550505050505092915050565b6000602082019050818103600083015261146c81846113dd565b905092915050565b600082825260208201905092915050565b7f54686520726563656976657220686173207265616368656420746865206e756d60008201527f626572206f662070656e64696e67206c696d6974730000000000000000000000602082015250565b60006114e1603583611474565b91506114ec82611485565b604082019050919050565b60006020820190508181036000830152611510816114d4565b9050919050565b7f4e487b7100000000000000000000000000000000000000000000000000000000600052601160045260246000fd5b600061155182611186565b915061155c83611186565b925082820190508082111561157457611573611517565b5b92915050565b7f4e487b7100000000000000000000000000000000000000000000000000000000600052602260045260246000fd5b600060028204905060018216806115c157607f821691505b6020821081036115d4576115d361157a565b5b50919050565b60008190508160005260206000209050919050565b60006020601f8301049050919050565b600082821b905092915050565b60006008830261163c7fffffffffffffffffffffffffffffffffffffffffffffffffffffffffffffffff826115ff565b61164686836115ff565b95508019841693508086168417925050509392505050565b6000819050919050565b600061168361167e61167984611186565b61165e565b611186565b9050919050565b6000819050919050565b61169d83611668565b6116b16116a98261168a565b84845461160c565b825550505050565b600090565b6116c66116b9565b6116d1818484611694565b505050565b5b818110156116f5576116ea6000826116be565b6001810190506116d7565b5050565b601f82111561173a5761170b816115da565b611714846115ef565b81016020851015611723578190505b61173761172f856115ef565b8301826116d6565b50505b505050565b600082821c905092915050565b600061175d6000198460080261173f565b1980831691505092915050565b6000611776838361174c565b9150826002028217905092915050565b61178f82611299565b67ffffffffffffffff8111156117a8576117a7610fa1565b5b6117b282546115a9565b6117bd8282856116f9565b600060209050601f8311600181146117f057600084156117de578287015190505b6117e8858261176a565b865550611850565b601f1984166117fe866115da565b60005b8281101561182657848901518255600182019150602085019450602081019050611801565b86831015611843578489015161183f601f89168261174c565b8355505b6001600288020188555050505b505050505050565b600061187361186e611869846110cc565b61165e565b6110cc565b9050919050565b600061188582611858565b9050919050565b60006118978261187a565b9050919050565b6118a78161188c565b82525050565b60006118b882611299565b6118c28185611474565b93506118d28185602086016112b5565b6118db81610f90565b840191505092915050565b6118ef81611318565b82525050565b600060c08201905061190a6000830189611225565b611917602083018861189e565b61192460408301876111e9565b61193160608301866111e9565b818103608083015261194381856118ad565b905061195260a08301846118e6565b979650505050505050565b7f4e487b7100000000000000000000000000000000000000000000000000000000600052603260045260246000fd5b60006040820190506119a1600083018561189e565b6119ae60208301846111e9565b9392505050565b7f596f75206172656e277420746865206f776e6572000000000000000000000000600082015250565b60006119eb601483611474565b91506119f6826119b5565b602082019050919050565b60006020820190508181036000830152611a1a816119de565b9050919050565b60006020820190508181036000830152611a3b81846118ad565b905092915050565b60006080820190508181036000830152611a5d81876118ad565b9050611a6c6020830186611225565b8181036040830152611a7e81856118ad565b9050611a8d60608301846111e9565b95945050505050565b7f4f6e6c79207468652072656365697665722063616e205f636f6e6669726d4d6560008201527f737361676520746865206d657373616765000000000000000000000000000000602082015250565b6000611af2603183611474565b9150611afd82611a96565b604082019050919050565b60006020820190508181036000830152611b2181611ae5565b9050919050565b7f54686973206d6573736167652068617320616c7265616479206265656e20636f60008201527f6e6669726d656400000000000000000000000000000000000000000000000000602082015250565b6000611b84602783611474565b9150611b8f82611b28565b604082019050919050565b60006020820190508181036000830152611bb381611b77565b9050919050565b600081905092915050565b50565b6000611bd5600083611bba565b9150611be082611bc5565b600082019050919050565b6000611bf682611bc8565b9150819050919050565b7f4661696c656420746f20776974686472617720415641582066726f6d20636f6e60008201527f7472616374000000000000000000000000000000000000000000000000000000602082015250565b6000611c5c602583611474565b9150611c6782611c00565b604082019050919050565b60006020820190508181036000830152611c8b81611c4f565b905091905056fea2646970667358221220f13ac6b589d14a9dad61053af41f3278061025f8e6be40c7712d14d56171406664736f6c63430008110033",
  "linkReferences": {},
  "deployedLinkReferences": {}
}